:100000000C940B010C9433010C9433010C943301C8
:100010000C9433010C9433010C9433010C94330190
:100020000C9433010C9433010C9433010C94330180
:100030000C9433010C9433010C9433010C94330170
:100040000C94E8090C9433010C94B6090C949009B3
:100050000C9433010C9433010C9433010C94330150
:100060000C94320A0C943301000000002400270095
:100070002A0000000000250028002B00D0A3D18119
:10008000D0BFD0B5D188D0BDD18BD0B920D0B7D01A
:10009000B0D0BFD183D181D0BA00D0A2D0B5D0BC6E
:1000A000D0BFD0B5D180D0B0D182D183D180D0B0F3
:1000B00020D182D0B5D180D0BCD0BED0BFD0B0D1FD
:1000C00080D18B20D0BDD0B8D0B7D0BAD0B0D18F2E
:1000D0002E20D09FD0BED0B2D182D0BED180D0BD94
:1000E000D0B0D18F20D0BFD0BED0BFD18BD182D0E5
:1000F000BAD0B020D187D0B5D180D0B5D0B7203319
:1001000020D0BCD0B8D0BDD183D182D18B00D097C4
:10011000D0B0D0B6D0B8D0B3D0B0D0BDD0B8D0B5B4
:1001200020D0B2D18BD0BAD0BBD18ED187D0B5D0B0
:10013000BDD0BE00D09FD0BED0B4D0B0D187D0B09B
:1001400020D0B3D0B0D0B7D0B02E20D097D0B0D080
:10015000B6D0B8D0B3D0B0D0BDD0B8D0B500D09E56
:10016000D0B6D0B8D0B4D0B0D0BDD0B8D0B500C221
:10017000B04300D0A2D0B5D180D0BCD0BED0BFD0CB
:10018000B0D180D0B03A20002500C2B0432C20D09E
:1001900092D0BBD0B0D0B6D0BDD0BED181D182D1AB
:1001A0008C3A2000D0A2D0B5D0BCD0BFD0B5D18081
:1001B000D0B0D182D183D180D0B03A20003A003A79
:1001C0000020646179732C2000757020000000000D
:1001D00000230026002900000000080002010000A2
:1001E00003040700000000000000000404040404ED
:1001F00004040402020202020203030303030301D4
:1002000002040810204080010204081020010204AA
:1002100008102000510B11241FBECFEFD8E0DEBF25
:10022000CDBF11E0A0E0B1E0EEEDF7E202C0059035
:100230000D92A03DB107D9F723E0A0EDB1E001C0D8
:100240001D92A43AB207E1F711E0CBE0D1E004C07F
:100250002197FE010E94B312CA30D107C9F70E944C
:10026000FF0B0C94ED130C94000008950895AF92C9
:10027000BF92CF92DF92EF92FF920F931F93CF9393
:10028000DF936C017B018B01040F151FEB015E01F5
:10029000AE18BF08C017D10759F06991D601ED918A
:1002A000FC910190F081E02DC6010995892B79F729
:1002B000C501DF91CF911F910F91FF90EF90DF90DB
:1002C000CF90BF90AF900895FC01538D448D252FA2
:1002D00030E0842F90E0821B930B541710F0CF96E0
:1002E000089501970895FC01918D828D981761F012
:1002F000A28DAE0FBF2FB11D5D968C91928D9F5F29
:100300009F73928F90E008958FEF9FEF0895FC0107
:10031000918D828D981731F0828DE80FF11D858DBA
:1003200090E008958FEF9FEF0895FC01918D228D4D
:10033000892F90E0805C9F4F821B91098F739927D2
:10034000089582EC92E00E94950121E0892B09F446
:1003500020E0822F089580E090E0892B29F00E9410
:10036000A10181110C9400000895FC01A48DA80F37
:10037000B92FB11DA35ABF4F2C91848D90E00196E7
:100380008F739927848FA689B7892C93A089B18907
:100390008C91837080648C93938D848D981306C0A8
:1003A0000288F389E02D80818F7D80830895EF920C
:1003B000FF920F931F93CF93DF93EC0181E0888F1F
:1003C0009B8D8C8D98131AC0E889F989808185FFEF
:1003D00015C09FB7F894EE89FF896083E889F98991
:1003E00080818370806480839FBF81E090E0DF9193
:1003F000CF911F910F91FF90EF900895F62E0B8DE6
:1004000010E00F5F1F4F0F731127E02E8C8D8E11A0
:100410000CC00FB607FCFACFE889F989808185FF07
:10042000F5CFCE010E94B501F1CFEB8DEC0FFD2F82
:10043000F11DE35AFF4FF0829FB7F8940B8FEA89C2
:10044000FB8980818062CFCF0F931F93CF93DF937F
:100450008C01D0E0C0E0F801EC0FFD1F6491662331
:1004600041F082EC92E00E94D701892B11F0219695
:10047000F2CFCE01DF91CF911F910F910895CF93CD
:10048000DF93EC01888D8823B9F0AA89BB89E889BC
:10049000F9898C9185FD03C0808186FD0DC00FB662
:1004A00007FCF7CF8C9185FFF2CF808185FFEDCFE0
:1004B000CE010E94B501E9CFDF91CF91089583303D
:1004C00081F028F4813099F08230A9F008958730C6
:1004D000A9F08830C9F08430B1F4809180008F7D1C
:1004E00003C0809180008F7780938000089584B549
:1004F0008F7784BD089584B58F7DFBCF8091B00048
:100500008F778093B00008958091B0008F7DF9CFF0
:100510001F93CF93DF93282F30E0F901E952FE4F6C
:100520008491F901E150FE4FD491F901E551FE4F5C
:10053000C491CC23A9F0162F81110E945F02EC2FE9
:10054000F0E0EE0FFF1FEE58FF4FA591B4918FB76B
:10055000F894EC91111108C0D095DE23DC938FBF85
:10056000DF91CF911F910895DE2BF8CF1092C10239
:100570001092C0021092BF021092BE021092BD02F1
:1005800081E08093BC021092BB0261E082E10E9494
:10059000880261E083E10E948802E9EBF0E080815B
:1005A0008E7F808380818D7F808388E48093B800F4
:1005B00085E48093BC0085E391E09093BA02809338
:1005C000B90286E391E09093B8028093B702089550
:1005D000CF93DF9390E0FC01E150FE4F24918551D1
:1005E0009E4FFC0184918823C9F090E0880F991FE9
:1005F000FC01E859FF4FA591B491FC01EE58FF4F63
:10060000C591D49161110DC09FB7F8948C9120953C
:1006100082238C938881282328839FBFDF91CF91E9
:100620000895623051F49FB7F8943C91822F8095E1
:1006300083238C93E8812E2BEFCF8FB7F894EC9126
:100640002E2B2C938FBFEACF3FB7F89480917E0278
:1006500090917F02A0918002B091810226B5A89B63
:1006600005C02F3F19F00196A11DB11D3FBFBA2F44
:10067000A92F982F8827BC01CD01620F711D811D04
:10068000911D42E0660F771F881F991F4A95D1F789
:1006900008958F929F92AF92BF92CF92DF92EF9286
:1006A000FF924B015C010E9424036B017C010E94BC
:1006B00024036C197D098E099F09683E73408105EA
:1006C0009105A8F321E0821A9108A108B10888EEEB
:1006D000C80E83E0D81EE11CF11C81149104A10412
:1006E000B10429F7FF90EF90DF90CF90BF90AF90CB
:1006F0009F908F9008952FB7F89460917A0270912F
:100700007B0280917C0290917D022FBF0895089515
:1007100085ED8093BC008091BC0084FDFCCF1092DD
:10072000BD02089520911002260F3327331F213276
:100730003105ECF42091BD02FC0190E080E0243012
:1007400069F082E00895A09110022191AC0140511E
:100750005E4FA40FB52FB11D2C930196861798F309
:1007600080911002680F6093100280E0089581E08C
:1007700008950895E091C1028091C002E81730F415
:10078000F0E0E053FE4F808190E008958FEF9FEFFF
:1007900008959091C1028091C0022FEF3FEF98170A
:1007A00048F4E92FF0E0E053FE4F208130E09F5FF6
:1007B0009093C102C90108958091C0029091C10235
:1007C000891B990B0895CF92DF92EF92FF920F93BE
:1007D0001F93CF93DF937C01CB018A0120915702B5
:1007E000222389F0EB016B01C40ED51ECC15DD056B
:1007F00069F06991D701ED91FC910190F081E02DB4
:10080000C7010995F3CF642F0E949203C801DF91BD
:10081000CF911F910F91FF90EF90DF90CF900895AF
:10082000CF93DF931F92CDB7DEB769832091570234
:100830002223F9F02091BE02203258F021E030E06E
:10084000FC013383228390E080E00F90DF91CF9111
:1008500008958091BF02E82FF0E0E85AFD4F99819A
:1008600090838F5F8093BF028093BE0281E090E00F
:10087000ECCF61E0CE0101960E949203F7CFCF93B7
:10088000FC01C48121E020935702C09378021092AA
:10089000BF021092BE028385682B8FE593E00E9411
:1008A00010049091BE02913208F03FC08091BD02C9
:1008B0008111FCCF82E08093BD0281E08093BC0275
:1008C0008FEF809356021092550290935402A8E540
:1008D000B2E0E4E3F2E080E098132FC0109233021C
:1008E00080913302CC0FC82BC09333028091BB029E
:1008F000813039F51092BB02809133028093BB00A6
:100900008091BC0083FDF8CF85EC8093BC00809182
:10091000BD028230E1F3809156028F3F31F0809129
:100920005602803211F0809156021092BF0210924E
:10093000BE0210925702CF9108952D9121938F5F9F
:10094000CBCF85EEE2CF90E080E00895FC01838973
:100950008B3051F480E492E4AFE0B0E0FB0184A37B
:1009600095A3A6A3B7A3089580E894E8AEE1B0E00C
:10097000F5CFCF92DF92EF92FF92CF93DF93DC011E
:100980001796CC911797D0E06111DC2F18962C9117
:10099000189730E0220F331F23533E4F50E040E0C2
:1009A000F90185919491FC01F080BA0190E080E01A
:1009B000EF2DEC23ED1310C04F5F5F4F1D96CD90D0
:1009C000DD90ED90FC9050976C157D058E059F0590
:1009D00038F36FEF7FEFCB01DF91CF91FF90EF9076
:1009E000DF90CF9008958F929F92AF92BF92CF9257
:1009F000DF92EF92FF920F931F93CF93DF93CDB7C8
:100A0000DEB7C054D1400FB6F894DEBF0FBECDBFE5
:100A10008C010E947B03F801C184D284E384F484B6
:100A20009B01AC012C193D094E095F0969017A014E
:100A300030EDC31637E0D306E104F104A8F4818950
:100A4000C05CDE4F0FB6F894DEBF0FBECDBFDF91A6
:100A5000CF911F910F91FF90EF90DF90CF90BF90BB
:100A6000AF909F908F900895618772878387948756
:100A70001482138212821182108262E085810E94A8
:100A8000E80261E070E080E090E00E94490361E0EC
:100A9000F80185810E94E80260E0F80185810E94EA
:100AA0008802F80186818551823028F58BE291E138
:100AB0000197F1F762E0F80185810E94E802F801F0
:100AC000828990E08230910538F0880F991F880F55
:100AD000991F05970197F1F7F89460E0C8010E940B
:100AE000B9046F3F7F4F8F4F9F4F61F4F801118A18
:100AF000789480E0A5CF64E170E080E090E00E940F
:100B00004903D8CF61E0C8010E94B9046F3F7F4F0D
:100B10008F4F9F4F59F39E012F5F3F4F79015E0129
:100B20003FEBA31A3EEFB30A670160E0C8010E94E1
:100B3000B904F601608371838283938361E0C80105
:100B40000E94B904F6016483758386839783F8E075
:100B5000CF0ED11CCA14DB0441F7789430E020E0BA
:100B6000F70180809180A280B380448155816681A5
:100B70007781FFEF8F169F06AF06BF0631F04F3F1C
:100B80008FEF58076807780719F4F801118AB1CF79
:100B9000F90183E0F595E7958A95E1F7E00FF11FFC
:100BA0008081880F84169506A606B706F0F080832C
:100BB0002F5F3F4FF8E0EF0EF11C2832310581F630
:100BC000F801448120818181280F3327331F8281DE
:100BD000280F311D8381820F932F911D992748176C
:100BE000190699F681E0818B2BCF8160E0CF0895C3
:100BF0000895DF92EF92FF920F931F93CF93DF93AD
:100C0000E12CC7E0D0E001E010E060E080916B03F0
:100C10000E9488028FE99FE00197F1F700C0000071
:100C200020916C0330E0F901E952FE4F8491F90103
:100C3000E150FE4FF490F901E551FE4FD490DD20D4
:100C4000A9F081110E945F02ED2DF0E0EE0FFF1F71
:100C5000E353FE4FA591B491EC91FE2239F0C80107
:100C60000C2E01C0880F0A94EAF7E82A61E080910F
:100C70006B030E9488028FE99FE00197F1F700C0A3
:100C80000000219708F0C1CF8E2DDF91CF911F91E9
:100C90000F91FF90EF90DF9008950F931F93CF93E4
:100CA0008C01C62F0E943F046C2F6460C8010E9413
:100CB0003F046C2F6B7FC8010E943F0483EC90E0DF
:100CC0000197F1F7CF911F910F9108950F931F9303
:100CD000CF93DF938C01D62FC42F607F642B0E94AB
:100CE0004D0680E1D89FB00111246C2BC801DF9123
:100CF000CF911F910F910C944D06CF93DF93CDB7F9
:100D0000DEB728970FB6F894DEBF0FBECDBF98E0D0
:100D1000E4E1F1E0DE01119601900D929A95E1F780
:100D200090919C03961708F46FEF262F30E0220F66
:100D3000331F41E050E04C0F5D1F240F351FF901B8
:100D40006081680F606840E084E993E028960FB600
:100D5000F894DEBF0FBECDBFDF91CF910C94660635
:100D600041E00E94660681E090E00895FB01019059
:100D70000020E9F73197AF01461B570BDC01ED91DD
:100D8000FC910280F381E02D09948F929F92AF92A3
:100D9000BF92EF92FF920F931F93CF93DF93CDB744
:100DA000DEB7A1970FB6F894DEBF0FBECDBF7C01B2
:100DB000262F30E050E040E019A28E010F5D1F4F5A
:100DC0008AE0882E912CA12CB12CCA01B901A50171
:100DD00094010E949112605DF80162938F012115C8
:100DE00031054105510589F790E080E0309721F009
:100DF000C701BF010E94B606A1960FB6F894DEBFE8
:100E00000FBECDBFDF91CF911F910F91FF90EF905B
:100E1000BF90AF909F908F900895BC0184E993E0BC
:100E20000C94B606CF93DF930E942402EC0168E68F
:100E300071E082EC92E00E94B6068C0F9D1FDF915C
:100E4000CF910895CF92DF92EF92FF920F931F936D
:100E5000CF93DF938C01EB01FB01349680E2DF013D
:100E60001D928A95E9F784E290E0A0E0B0E08883E3
:100E70009983AA83BB83F80185819681A781B08578
:100E80008C839D83AE83BF838CE090E0A0E0B0E0D4
:100E900088879987AA87BB870E947B03688B798B99
:100EA0008A8B9B8BD80113960D911C91C8010E94CF
:100EB000F304882349F0F80186818B3028F08D30C7
:100EC00040F08551823070F160E070E080EC9FE787
:100ED0001BC0618170E090E080E00E946A112DECFF
:100EE0003CEC4CEC5DE30E94FB116B017C01F801D2
:100EF000608170E090E080E00E946A119B01AC018B
:100F0000C701B6010E94C6106C8B7D8B8E8B9F8BA8
:100F100081E0DF91CF911F910F91FF90EF90DF90D3
:100F2000CF9008956081718176276727762790E0BA
:100F300080E00E9468112DEC3CEC4CEC5DE30E94DB
:100F4000FB11E2CF8F929F92AF92BF92EF92FF92EE
:100F50001F93CF93DF937C01EB01FB01349680E27A
:100F6000DF011D928A95E9F784E290E0A0E0B0E00D
:100F700088839983AA83BB83F70185819681A781A2
:100F8000B0858C839D83AE83BF838DE090E0A0E02D
:100F9000B0E088879987AA87BB870E947B03688B0C
:100FA000798B8A8B9B8BD7011396ED90FC90C701B0
:100FB0000E94F304882341F0F70186818C3009F404
:100FC00055C038F48B30E1F060E070E080EC9FE7D2
:100FD0003EC085518230C0F71281612F70E0762FBC
:100FE000662766277F778381682B90E080E00E94E8
:100FF00068112DEC3CEC4CEC5DE30E94FB1151C000
:10100000628170E090E080E00E9468114B015C0119
:10101000F701138117FF0AC0AC019B0160E070E08B
:1010200080E89FEB0E94C5104B015C011F70612F8F
:1010300070E090E080E00E946A112DEC3CEC4CECFA
:101040005DE30E94FB11A50194010E94C6106C8B08
:101050007D8B8E8B9F8B81E0DF91CF911F91FF90D5
:10106000EF90BF90AF909F908F9008951281612F65
:1010700070E090E080E00E9468114B015C01F70194
:1010800063816F7070E090E080E00E946A112DEC47
:101090003CEC4CEC5DE30E94FB11A50194010E9425
:1010A000C61017FFD4CF9058D2CFCF93DF93EB0168
:1010B000FC0183894BE050E061E771E08C30C1F0C6
:1010C00058F44BE050E06BE671E08B3089F04BE078
:1010D00050E063E871E00CC04BE050E067E771E07E
:1010E000853131F04BE050E06DE771E0863179F702
:1010F000CE010E94DE131B86DF91CF9108950F93DE
:101100001F93CF93DF938C01EB0188E2DB011D92EB
:101110008A95E9F7F801838194810E94550881E05E
:1011200090E0A0E0B0E08C879D87AE87BF87F80194
:1011300085819681A781B085888B998BAA8BBB8B83
:101140008CE090E0A0E0B0E08C8B9D8BAE8BBF8BF1
:10115000BE01838194810E94A604D8011396ED916B
:10116000FC9183898C3009F441C078F48B3009F10B
:10117000188E198E1A8E1B8E1C8E1D8E1E8E1F8E23
:1011800018A219A21AA21BA22CC08551823080F786
:1011900080E090E0A8ECB2E4888F998FAA8FBB8F93
:1011A0001C8E1D8E1E8E1F8E8DEC9CECACECBDE358
:1011B00014C080E090E0A0EAB2E4888F998FAA8FF3
:1011C000BB8F80E090E0A0EAB1E48C8F9D8FAE8F62
:1011D000BF8F80E090E0A0EAB0E488A399A3AAA31F
:1011E000BBA3DF91CF911F910F91089580E090E014
:1011F000AEEBB2E4E2CF0F931F93CF93DF938C015A
:10120000EB0188E2DB011D928A95E9F7F801838101
:1012100094810E94550881E090E0A0E0B0E08C87C6
:101220009D87AE87BF87F80185819681A781B085AC
:10123000888B998BAA8BBB8B8DE090E0A0E0B0E00F
:101240008C8B9D8BAE8BBF8BBE01838194810E9462
:10125000A604D8011396ED91FC9183898C3091F10D
:1012600078F48B30B1F0188E198E1A8E1B8E1C8E6E
:101270001D8E1E8E1F8E18A219A21AA21BA21DC09F
:101280008531A9F1863179F780E090E0AAEFB2E4E8
:1012900032C080E090E0A8E4B2E4888F998FAA8FF2
:1012A000BB8F1C8E1D8E1E8E1F8E80E090E0A0E0F6
:1012B000B0E488A399A3AAA3BBA3DF91CF911F9108
:1012C0000F91089580E090E0A0E7B2E4888F998FB5
:1012D000AA8FBB8F80E090E0A0EAB1EC8C8F9D8F4D
:1012E000AE8FBF8F80E090E0A0E0BFE3E2CF80E070
:1012F00090E0A0EAB2E4888F998FAA8FBB8F80E03C
:1013000090E0A0E2B2EC8C8F9D8FAE8FBF8F8DEC02
:101310009CECACECBDE3CDCF0C9455130C94551361
:101320001F920F920FB60F9211242F933F934F935A
:101330005F936F937F938F939F93AF93BF93EF933D
:10134000FF9382EC92E00E94B501FF91EF91BF9173
:10135000AF919F918F917F916F915F914F913F914D
:101360002F910F900FBE0F901F9018951F920F9204
:101370000FB60F9211242F938F939F93EF93FF93A8
:10138000E091D202F091D3028081E091D802F091F5
:10139000D90282FD1BC090818091DB028F5F8F7329
:1013A0002091DC02821741F0E091DB02F0E0EE5385
:1013B000FD4F958F8093DB02FF91EF919F918F916D
:1013C0002F910F900FBE0F901F9018958081F4CF32
:1013D0001F920F920FB60F9211242F933F938F936A
:1013E0009F93AF93BF9380917A0290917B02A091DB
:1013F0007C02B0917D023091790223E0230F2D37DA
:1014000058F50196A11DB11D2093790280937A02AF
:1014100090937B02A0937C02B0937D0280917E0228
:1014200090917F02A0918002B09181020196A11D4E
:10143000B11D80937E0290937F02A0938002B093AF
:101440008102BF91AF919F918F913F912F910F900A
:101450000FBE0F901F90189526E8230F0296A11D2E
:10146000B11DD2CF1F920F920FB60F9211242F935E
:101470003F934F935F936F937F938F939F93AF931C
:10148000BF93EF93FF938091B900887F803609F472
:101490004AC0F0F5883209F4A7C018F5803109F484
:1014A0009BC0B8F4882309F4F9C0883009F494C0CB
:1014B000FF91EF91BF91AF919F918F917F916F912C
:1014C0005F914F913F912F910F900FBE0F901F9002
:1014D0001895883109F488C0803251F780935602FC
:1014E00014C0803409F49DC040F48033B9F38833CC
:1014F000F9F68093560285ECB0C0803509F485C0BA
:10150000883509F496C0883499F60E948803D0CFB4
:10151000883909F48CC038F5883729F050F48836BA
:1015200011F0803729F683E08093BD0210923202D9
:1015300057C0883809F47BC0803919F0803809F029
:10154000B7CF80913202803208F071C0E091320250
:1015500081E08E0F809332028091BB00F0E0EE5E5E
:10156000FD4F80833DC0803B39F0E0F4803A09F4C0
:1015700079C0883A09F09CCF84E08093BD02109234
:10158000110210921002E091B902F091BA0209958D
:101590008091100281110FC081E08093100210929F
:1015A000F00109C0803C09F4A6CF883C09F4A3CF20
:1015B000883B09F07DCFE091110281E08E0F80938E
:1015C0001102F0E0E051FE4F80818093BB009091CA
:1015D00011028091100229C0809133028093BB00D8
:1015E00085EC8093BC0064CF9091550280915402A9
:1015F000981758F5E091550281E08E0F80935502BF
:10160000F0E0EC5CFD4F8081E9CFE091550281E094
:101610008E0F809355028091BB00F0E0EC5CFD4F93
:10162000808390915502809154029817C8F285E802
:10163000D8CFE091550281E08E0F809355028091C2
:10164000BB00F0E0EC5CFD4F80838091BC02811117
:101650005CCF81E08093BB0284EA8093BC0010924F
:10166000BD0226CF85EC8093BC001092BD02809114
:101670003202803230F4E0913202F0E0EE5EFD4F53
:1016800010826091320270E0E091B702F091B802EE
:1016900082E192E00995109232020ACF109256022E
:1016A00034CFCF93DF93E2ECF2E01382128288EE24
:1016B00093E0A0E0B0E084839583A683B78320E223
:1016C00031E03183208325EC30E03587248724EC1A
:1016D00030E03787268720EC30E0318B208B21ECFF
:1016E00030E0338B228B22EC30E0358B248B26ECE0
:1016F00030E0378B268B118E128E138E148EEFE511
:10170000F3E01382128284839583A683B78382E3F6
:1017100091E091838083E4E9F3E01382128280E612
:1017200091E09183808387E2848380E1818782E0F6
:1017300082871386AEE6B3E015968C9315978BE0FF
:1017400016968C931697E1E0F2E0E4911796EC93ED
:101750001797EDEEF1E0E4911896EC93189740E8B6
:101760005EE360E070E01D964D935D936D937C9316
:10177000509753968C93539782E591E055969C939E
:101780008E9354970A2E1B2E58961C920E9211245B
:1017900057974FEF5FEFBA0159964D935D936D9355
:1017A0007C935C9784E491E05E969C938E935D9726
:1017B0000A2E1B2E91961C920E92112490979296AF
:1017C0004D935D936D937C939597CBE6D3E086E044
:1017D000888385E08A8384E0898361E085E00E94D4
:1017E000E80261E088810E94E80260E089810E944D
:1017F000E80261E08A81DF91CF910C948802CF9357
:10180000DF93CDB7DEB729970FB6F894DEBF0FBED2
:10181000CDBF789484B5826084BD84B5816084BD79
:1018200085B5826085BD85B5816085BD80916E007E
:10183000816080936E0010928100809181008260AF
:1018400080938100809181008160809381008091EC
:1018500080008160809380008091B10084608093DB
:10186000B1008091B00081608093B00080917A00D7
:10187000846080937A0080917A00826080937A00FD
:1018800080917A00816080937A0080917A008068EC
:1018900080937A001092C10061E08DE00E94E8021E
:1018A0000E94B6026AE070E080E090E00E94490386
:1018B0000E94B6021092990380919E03823018F024
:1018C00098E09093990380939C0362E370E080E03A
:1018D00090E00E94490360919F0384E993E00E9495
:1018E0003F0468EE73E080E090E00E94490360E30B
:1018F00084E993E00E944D060BE416E4C8010197C9
:10190000F1F760E384E993E00E944D06C801019776
:10191000F1F760E384E993E00E944D0683E592E0ED
:101920000197F1F760E284E993E00E944D0660912F
:101930009903606240E084E993E00E94660684E0D7
:1019400080939A0340E06CE084E993E00E9466068D
:1019500040E061E084E993E00E9466060BE31FE14A
:10196000C8010197F1F732E0F32EF0929B0340E0BB
:1019700066E084E993E00E94660640E062E084E964
:1019800093E00E946606C8010197F1F788E0809312
:101990009F0360E084E993E00E943F0461E089E0F6
:1019A0000E947D0688E891E00E940D0762E0809128
:1019B00073030E94E8020E947B03605D7740810907
:1019C00091096093770370937803809379039093E0
:1019D0007A0387E38093800361E089E00E948802B4
:1019E00061E089E00E94E80261E089E00E948802EB
:1019F00061E088E00E94880261E088E00E94E802DD
:101A000061E088E00E948802E091D202F091D30266
:101A1000F082E091CE02F091CF021082E091D002EC
:101A2000F091D1028FEC80831092DA02E091D6021D
:101A3000F091D70286E08083E091D402F091D50244
:101A4000808180618083E091D402F091D502808111
:101A500088608083E091D402F091D5028081806813
:101A60008083E091D402F091D50280818F7D8083C4
:101A70004CE3C42ED12CE12CF12C58E1852E912C75
:101A8000A12CB12C20ED222E27E0322E0E947B03C8
:101A90000091000110910101209102013091030198
:101AA000061717072807390708F0DCC08091840360
:101AB0008B8322E531E03A832983809185039091DD
:101AC00086039D838C838091870390918803A091E6
:101AD0008903B0918A038E839F83A887B98762E8C0
:101AE00072E0CE0101960E94A207409096025090AB
:101AF00097026090980270909902A3019201C3012D
:101B0000B2010E946812882309F444C08FEF8093C9
:101B1000B20280918D038B8344E451E05A83498360
:101B200080918E0390918F039D838C83809190038D
:101B300090919103A0919203B09193038E839F8320
:101B4000A887B98762E872E0CE0101960E94220759
:101B5000409096025090970260909802709099027F
:101B6000A3019201C301B2010E94681281112DC02C
:101B700020E030E0A901C301B2010E94F61187FF05
:101B800041C220E030E040E05FE3C301B2010E94C7
:101B9000C51040C220E030E0A901C301B2010E949B
:101BA000F61120E030E040E05FE387FD09C0C301AB
:101BB000B2010E94C6100E9432116093B202A9CFF6
:101BC000C301B2010E94C510F6CF8FEF8093AC0223
:101BD00060E080916D030E9488028FE99FE0019789
:101BE000F1F700C000000E94F905082F10E0102F47
:101BF00000270E94F905082B61E080916D030E9487
:101C0000880260E070E080EC9FE702FD10C083E096
:101C1000169507958A95E1F7B80190E080E00E945B
:101C2000681120E030E040E85EE30E94FB110E9472
:101C300039116093AF028091000190910101A09150
:101C40000201B091030188519C4FAF4FBF4F809369
:101C5000000190930101A0930201B093030181E080
:101C60008093B6028091B602882309F43CC160E0FB
:101C700080E00E947D0680E991E00E940D0760915E
:101C8000B20283E991E06F3F61F084E993E00E9442
:101C9000C50641E06FED84E993E00E94660688E99D
:101CA00091E00E940D0760E08BE00E947D068BE9C9
:101CB00091E00E940D076091AC028EE991E06F3FC8
:101CC00031F084E993E00E94C50682EA91E00E9427
:101CD0000D0761E080E00E947D0684EA91E00E94A9
:101CE0000D076091AF0284E993E00E94C50641E0D0
:101CF0006FED84E993E00E94660688E991E00E9416
:101D00000D079091B0028091AE02981313C090918C
:101D1000B2028091AD0298130DC09091AC028091F7
:101D2000AB02981307C09091AF028091AA02981756
:101D300009F4D7C00E947B0328EE33E040E050E076
:101D40000E94911229013A01CA01B901A701960125
:101D50000E9491126093A902A3019201261B370BE6
:101D6000480B590BCA01B901A70196010E949112B3
:101D700029013A01CA01B901A70196010E949112F5
:101D80006093A802A3019201261B370B480B590B45
:101D9000CA01B901A70196010E94911229013A01D5
:101DA000CA01B901A50194010E9491126093A70292
:101DB000A3019201261B370B480B590BCA01B9012D
:101DC000A50194010E949112122F2093A60289EC82
:101DD00091E00E942402612F82EC92E00E94C506ED
:101DE00081EC91E00E9424026091A70282EC92E0D3
:101DF0000E94C5068FEB91E00E9424026091A80228
:101E000082EC92E00E94C5068DEB91E00E942402D4
:101E10006091A90282EC92E00E94C50668E671E03A
:101E200082EC92E00E94B6061091B2028091AD025F
:101E3000181306C09091AC028091AB029817F9F08C
:101E400084EA91E00E942402612F82EC92E00E94D9
:101E5000C5068AE891E00E9424026091AC0282ECFF
:101E600092E00E94C50688E891E00E9412078091E6
:101E7000B2028093AD028091AC028093AB021091CC
:101E8000AF028091AA02181789F083E791E00E94BF
:101E90002402612F82EC92E00E94C5068FE691E059
:101EA0000E9412078091AF028093AA028091B00233
:101EB0009091AE02891779F0843109F4C0C008F01E
:101EC000AEC0882309F4B3C08A3009F4B5C080914C
:101ED000B0028093AE0268E671E082EC92E00E946C
:101EE000B6061092B6020E947B0300910401109185
:101EF00005012091060130910701061717072807F1
:101F0000390708F045C061E089E00E947D068091B4
:101F1000B3029091B4028A30910509F4CEC08431A5
:101F2000910509F4F0C0892B09F024C18091B20217
:101F30008F3108F08AC08091B1028111AFC060E09A
:101F400089E00E94880260E088E00E9488020E9486
:101F50007B036854744F8F4F9F4F609304017093BD
:101F60000501809306019093070188EA91E00E94A1
:101F70000D078AE08093B0024AEF50E050930901C8
:101F8000409308018AE090E09093B4028093B302FA
:101F90000E947B0340900A0150900B0160900C015D
:101FA00070900D014616570668067906F0F41091F8
:101FB000B502612F8DE00E94880281E018271093FE
:101FC000B5028091080190910901092E000CAA0B1D
:101FD000BB0B840D951DA61DB71D80930A01909320
:101FE0000B01A0930C01B0930D0180E090E0892BD0
:101FF00009F44CCD0E94A101882309F443CD0E942D
:10200000000040CD20E030E040E05FE3C301B201DA
:102010000E94C6100E9432116093AC02D9CD8E315D
:1020200089F0883209F053CF8CE790E002C08EE54A
:1020300091E00E9412074BCF84E391E0FACF8EE04B
:1020400091E0F7CF8AE990E0F4CF823238F18091C5
:10205000B102882319F161E089E00E94880261E001
:1020600088E00E9488020E947B03605A75418F4F6E
:102070009F4F609304017093050180930601909334
:1020800007011092B10280EB91E00E940D071092BF
:10209000B00230920901209208017ACF0E947B039E
:1020A00068517C4F8F4F9F4F6093040170930501DF
:1020B00080930601909307016BCF61E088E00E9456
:1020C00088020E947B03605C704E8F4F9F4F60932D
:1020D000040170930501809306019093070124E1A8
:1020E00030E03093B4022093B30288EB91E00E9479
:1020F0000D0784E18093B00244EF51E05093090151
:102100004093080145CF8091AF02823310F561E022
:1021100089E00E9488020E947B03605E70448D4FBC
:102120009F4F609304017093050180930601909383
:10213000070180EC91E00E940D078EE18093B002D0
:1021400030920901209208011092B4021092B30259
:102150001FCF81E08093B10288EC91E00E940D07CF
:1021600088E28093B00288EE93E090930901809317
:102170000801EACF1092B4021092B3020E947B03CE
:102180006C507E4F8F4F9F4F8FCF5058BB27AA2741
:102190000E94DD100C94BC110E94AE1138F00E9418
:1021A000B51120F039F49F3F19F426F40C94AB11CB
:1021B0000EF4E095E7FB0C94A511E92F0E94CD11D8
:1021C00058F3BA17620773078407950720F079F46C
:1021D000A6F50C94EF110EF4E0950B2EBA2FA02D5E
:1021E0000B01B90190010C01CA01A0011124FF27C4
:1021F000591B99F0593F50F4503E68F11A16F040BF
:10220000A22F232F342F4427585FF3CF46953795BD
:102210002795A795F0405395C9F77EF41F16BA0B82
:10222000620B730B840BBAF09150A1F0FF0FBB1F30
:10223000661F771F881FC2F70EC0BA0F621F731F79
:10224000841F48F4879577956795B795F7959E3FD6
:1022500008F0B0CF9395880F08F09927EE0F979567
:10226000879508950E9439116894B1110C94F0116A
:1022700008950E94D51188F09F5798F0B92F99279B
:10228000B751B0F0E1F0660F771F881F991F1AF061
:10229000BA95C9F714C0B13091F00E94EF11B1E0C6
:1022A00008950C94EF11672F782F8827B85F39F0C5
:1022B000B93FCCF3869577956795B395D9F73EF4FA
:1022C00090958095709561957F4F8F4F9F4F0895A2
:1022D000E89409C097FB3EF49095809570956195C0
:1022E0007F4F8F4F9F4F9923A9F0F92F96E9BB2776
:1022F0009395F695879577956795B795F111F8CFF2
:10230000FAF4BB0F11F460FF1BC06F5F7F4F8F4F5C
:102310009F4F16C0882311F096E911C0772321F052
:102320009EE8872F762F05C0662371F096E8862FEA
:1023300070E060E02AF09A95660F771F881FDAF741
:10234000880F9695879597F9089597F99F6780E884
:1023500070E060E008959FEF80EC089500240A94F7
:102360001616170618060906089500240A94121670
:102370001306140605060895092E0394000C11F4A3
:10238000882352F0BB0F40F4BF2B11F460FF04C050
:102390006F5F7F4F8F4F9F4F089557FD9058440FA9
:1023A000551F59F05F3F71F04795880F97FB991FB4
:1023B00061F09F3F79F08795089512161306140671
:1023C000551FF2CF4695F1DF08C0161617061806FE
:1023D000991FF1CF86957105610508940895E894D9
:1023E000BB2766277727CB0197F908950E946D12C6
:1023F00008F48FEF08950E940E120C94BC110E94F5
:10240000AE1138F00E94B51120F0952311F00C9414
:10241000A5110C94AB1111240C94F0110E94CD1154
:1024200070F3959FC1F3950F50E0551F629FF00127
:10243000729FBB27F00DB11D639FAA27F00DB11D40
:10244000AA1F649F6627B00DA11D661F829F2227C9
:10245000B00DA11D621F739FB00DA11D621F839F50
:10246000A00D611D221F749F3327A00D611D231F26
:10247000849F600D211D822F762F6A2F11249F5774
:1024800050409AF0F1F088234AF0EE0FFF1FBB1F77
:10249000661F771F881F91505040A9F79E3F510536
:1024A00080F00C94A5110C94F0115F3FE4F3983E7A
:1024B000D4F3869577956795B795F795E7959F5FE0
:1024C000C1F7FE2B880F911D9695879597F9089572
:1024D0000E946D12880B990B0895990F0008550FF3
:1024E000AA0BE0E8FEEF16161706E807F907C0F09A
:1024F00012161306E407F50798F0621B730B840BA2
:10250000950B39F40A2661F0232B242B252B21F47B
:1025100008950A2609F4A140A6958FEF811D811D1B
:102520000895A1E21A2EAA1BBB1BFD010DC0AA1F14
:10253000BB1FEE1FFF1FA217B307E407F50720F02C
:10254000A21BB30BE40BF50B661F771F881F991FA7
:102550001A9469F760957095809590959B01AC01F0
:10256000BD01CF010895EE0FFF1F0590F491E02DFE
:1025700009940F931F93CF93DF938230910510F44A
:1025800082E090E0E091A203F091A30330E020E02C
:10259000B0E0A0E0309799F42115310509F44AC064
:1025A000281B390B24303105D8F58A819B816115B0
:1025B000710589F1FB0193838283FE0111C0408183
:1025C00051810281138148175907E0F048175907D4
:1025D00099F4109761F012960C93129713961C932E
:1025E0003296CF01DF91CF911F910F910895009303
:1025F000A2031093A303F4CF2115310551F0421724
:10260000530738F0A901DB019A01BD01DF01F80190
:10261000C1CFEF01F9CF9093A3038093A203CDCF55
:10262000FE01E20FF31F8193919322503109398308
:102630002883D7CF2091A0033091A103232B41F40D
:1026400020911001309111013093A1032093A00338
:1026500020910E0130910F012115310541F42DB764
:102660003EB74091120150911301241B350BE091AC
:10267000A003F091A103E217F307A0F42E1B3F0B78
:102680002817390778F0AC014E5F5F4F24173507E4
:1026900048F04E0F5F1F5093A1034093A003819316
:1026A00091939FCFF0E0E0E09CCFCF93DF93009732
:1026B000E9F0FC01329713821282A091A203B0913B
:1026C000A303ED0130E020E01097A1F420813181D7
:1026D000820F931F2091A0033091A103281739077F
:1026E00009F061C0F093A103E093A003DF91CF91C3
:1026F0000895EA01CE17DF07E8F54A815B819E0164
:1027000041155105B1F7E901FB83EA8349915991DC
:10271000C40FD51FEC17FD0761F4808191810296EB
:10272000840F951FE90199838883828193819B831C
:102730008A83F0E0E0E012968D919C9113970097C8
:10274000B9F52D913C911197CD010296820F931FFF
:102750002091A0033091A1032817390739F630974B
:1027600051F51092A3031092A203B093A103A0937A
:10277000A003BCCFD383C28340815181840F951FB6
:10278000C817D90761F44E5F5F4F88819981480F60
:10279000591F518340838A819B81938382832115B2
:1027A000310509F0B0CFF093A303E093A2039ECFCD
:1027B000FD01DC01C0CF13821282D7CFFB01DC0107
:1027C0004150504048F001900D920020C9F701C0DF
:0E27D0001D9241505040E0F70895F894FFCF5D
:1027DE00E803000088130000D007D00700000000B7
:1027EE00A40380000000400014005400000000000C
:1027FE00D701370164013F02950173018701000083
:10280E0000001004E303A304B903DC03C903BA03F5
:10281E0000000000F7058C09F80522077F0800006C
:10282E000000F7058E09F805A207FB08000000005E
:10283E00B0063701A30487030D0A00444854313112
:10284E000044485431320044485432310044485414
:10285E003232004448543F0048656C6C6F202100B2
:10286E00543D006572722000432000483D006572A1
:10287E0072002500546B3D005374617274207E000B
:10288E0047617A206F66660053746172742020006F
:10289E00526573746172740047617A206F6E200006
:107800000C94343C0C94513C0C94513C0C94513CE1
:107810000C94513C0C94513C0C94513C0C94513CB4
:107820000C94513C0C94513C0C94513C0C94513CA4
:107830000C94513C0C94513C0C94513C0C94513C94
:107840000C94513C0C94513C0C94513C0C94513C84
:107850000C94513C0C94513C0C94513C0C94513C74
:107860000C94513C0C94513C11241FBECFEFD8E036
:10787000DEBFCDBF11E0A0E0B1E0ECE9FFE702C060
:1078800005900D92A230B107D9F712E0A2E0B1E065
:1078900001C01D92AD30B107E1F70E942D3D0C945F
:1078A000CC3F0C94003C982F959595959595959582
:1078B000905D8F708A307CF0282F295A8091C0000B
:1078C00085FFFCCF9093C6008091C00085FFFCCF60
:1078D0002093C6000895282F205DF0CF982F809127
:1078E000C00085FFFCCF9093C6000895EF92FF92F1
:1078F0000F931F93EE24FF2487018091C00087FD22
:1079000017C00894E11CF11C011D111D81E4E8164B
:1079100082E4F8068FE0080780E0180770F3E09132
:107920000401F091050109958091C00087FFE9CF1E
:107930008091C6001F910F91FF90EF9008950E94D3
:10794000763C982F8091C00085FFFCCF9093C600B5
:1079500091362CF490330CF09053892F089597555D
:10796000892F08951F930E949F3C182F0E949F3CCF
:107970001295107F810F1F9108951F93182F882350
:1079800021F00E94763C1150E1F71F9108951F935A
:10799000182F0E94763C803249F0809103018F5F5E
:1079A000809303018530C1F01F9108958091C0003C
:1079B00085FFFCCF84E18093C6008091C00085FFE5
:1079C000FCCF1093C6008091C00085FFFCCF80E102
:1079D0008093C6001F910895E0910401F091050184
:1079E00009951F9108950E94763C803241F0809164
:1079F00003018F5F80930301853081F008958091AA
:107A0000C00085FFFCCF84E18093C6008091C00058
:107A100085FFFCCF80E18093C6000895E0910401CA
:107A2000F09105010995089540E951E08823A1F0FE
:107A30002D9A28EE33E0FA013197F1F721503040CA
:107A4000D1F72D9828EE33E0FA013197F1F7215064
:107A50003040D1F7815061F708953F924F925F9285
:107A60006F927F928F929F92AF92BF92CF92DF924E
:107A7000EF92FF920F931F93CF93DF93000080E16B
:107A80008093C4001092C50088E18093C10086E015
:107A90008093C2005098589A259A81E00E94143D24
:107AA00024E1F22E9EE1E92E85E9D82E0FE0C02ECA
:107AB00010E1B12EAA24A394B1E49B2EA6E58A2E50
:107AC000F2E57F2EE0E26E2E79E4572E63E5462E36
:107AD00050E5352E0E94763C8033B1F18133B9F107
:107AE000803409F46FC0813409F476C0823409F41B
:107AF00085C0853409F488C0803531F1823521F1A3
:107B0000813511F1853509F485C0863509F48DC0BC
:107B1000843609F496C0843709F403C1853709F423
:107B200072C1863709F466C0809103018F5F80932C
:107B30000301853079F6E0910401F0910501099582
:107B40000E94763C803351F60E94F33CC3CF0E94E2
:107B5000763C803249F78091C00085FFFCCFF092DF
:107B6000C6008091C00085FFFCCF9092C600809136
:107B7000C00085FFFCCF8092C6008091C00085FFC9
:107B8000FCCF7092C6008091C00085FFFCCF609250
:107B9000C6008091C00085FFFCCF5092C600809146
:107BA000C00085FFFCCF4092C6008091C00085FFD9
:107BB000FCCF3092C6008091C00085FFFCCFB09210
:107BC000C60088CF0E94763C863808F4BDCF0E945C
:107BD000763C0E94F33C7ECF0E94763C803809F4CC
:107BE0009CC0813809F40BC1823809F43CC1883942
:107BF00009F48FC080E00E94C73C6CCF84E10E94F2
:107C0000BD3C0E94F33C66CF85E00E94BD3C0E94D3
:107C1000F33C60CF0E94763C809306010E94763C44
:107C2000809307010E94F33C55CF0E94763C80333D
:107C300009F41DC183E00E94BD3C80E00E94C73C66
:107C400049CF0E94763C809309020E94763C809343
:107C5000080280910C028E7F80930C020E94763C79
:107C6000853409F415C18091080290910902892B8D
:107C700089F000E010E00E94763CF801E85FFE4FDA
:107C800080830F5F1F4F80910802909109020817AF
:107C9000190788F30E94763C803209F045CF809125
:107CA0000C0280FF01C16091060170910701660F0F
:107CB000771F7093070160930601A0910802B091AD
:107CC00009021097C9F0E8E0F1E09B01AD014E0F09
:107CD0005F1FF999FECF32BD21BD819180BDFA9A17
:107CE000F99A2F5F3F4FE417F50799F76A0F7B1F4B
:107CF00070930701609306018091C00085FFFCCF5F
:107D0000F092C6008091C00085FFFCCFB092C60003
:107D1000E1CE83E00E94C73CDDCE82E00E94C73CFA
:107D2000D9CE0E94763C809309020E94763C8093D3
:107D300008028091060190910701880F991F909386
:107D40000701809306010E94763C853409F4A6C0A1
:107D500080910C028E7F80930C020E94763C8032D0
:107D600009F0B8CE8091C00085FFFCCFF092C6002C
:107D7000609108027091090261157105B9F140E046
:107D800050E080910C02A82FA170B82FB27011C0E2
:107D9000BB2309F45CC0E0910601F0910701319624
:107DA000F0930701E09306014F5F5F4F46175707B7
:107DB000E8F4AA2369F3F999FECF209106013091E6
:107DC000070132BD21BDF89A90B58091C00085FFB2
:107DD000FCCF9093C6002F5F3F4F30930701209355
:107DE00006014F5F5F4F4617570718F38091C00099
:107DF00085FDE5CE8091C00085FFF8CFE0CE81E023
:107E00000E94C73C67CE0E94763C803209F08CCE3F
:107E10008091C00085FFFCCFF092C6008091C00029
:107E200085FFFCCFE092C6008091C00085FFFCCFAB
:107E3000D092C6008091C00085FFFCCFC092C600E2
:107E40008091C00085FFFCCFB092C60043CEE09188
:107E50000601F091070194918091C00085FFFCCF4D
:107E60009093C6009CCF80E10E94C73C33CE0E9415
:107E7000763C0E94763C182F0E94763C112309F430
:107E800083C0113009F484C08FE00E94C73C22CE29
:107E900080910C02816080930C02E5CE80910C02EF
:107EA000816080930C0259CF809107018823880F4D
:107EB000880B8A2180930B02809106019091070123
:107EC000880F991F90930701809306018091080203
:107ED00080FF09C080910802909109020196909359
:107EE000090280930802F894F999FECF1127E091D6
:107EF0000601F0910701C8E0D1E08091080290915D
:107F00000902103091F40091570001700130D9F34B
:107F100003E000935700E89500915700017001308D
:107F2000D9F301E100935700E89509901990009169
:107F3000570001700130D9F301E000935700E89534
:107F40001395103498F011270091570001700130FB
:107F5000D9F305E000935700E895009157000170B0
:107F60000130D9F301E100935700E895329602976A
:107F700009F0C7CF103011F00296E5CF112480919F
:107F8000C00085FFB9CEBCCE8EE10E94C73CA2CD19
:0C7F900085E90E94C73C9ECDF894FFCF0D
:027F9C00800063
:040000030000780081
:00000001FF
