:100000000C9462000C948A000C948A000C948A0070
:100010000C948A000C948A000C948A000C948A0038
:100020000C948A000C948A000C948A000C948A0028
:100030000C948A000C948A000C948A000C948A0018
:100040000C94DB070C948A000C948A000C948A00B0
:100050000C948A000C948A000C948A000C948A00F8
:100060000C9425080C948A0000000000240027004E
:100070002A0000000000250028002B0000000000DE
:1000800023002600290000000008000201000003F0
:10009000040700000000000000000404040404043D
:1000A0000404020202020202030303030303010227
:1000B00004081020408001020408102001020408F6
:1000C0001020440911241FBECFEFD8E0DEBFCDBF02
:1000D00011E0A0E0B1E0E8E0F1E202C005900D928D
:1000E000A83BB107D9F722E0A8EBB1E001C01D920F
:1000F000AA3EB207E1F710E0C2E6D0E004C02197C3
:10010000FE010E94480FC136D107C9F70E94CA09F3
:100110000C9482100C94000008950895AF92BF9241
:10012000CF92DF92EF92FF920F931F93CF93DF93C3
:100130006C017B018B01040F151FEB015E01AE18F2
:10014000BF08C017D10759F06991D601ED91FC9114
:100150000190F081E02DC6010995892B79F7C50141
:10016000DF91CF911F910F91FF90EF90DF90CF9093
:10017000BF90AF900895833081F028F4813099F0DA
:100180008230A9F008958730A9F08830C9F0843012
:10019000B1F4809180008F7D03C0809180008F77C3
:1001A00080938000089584B58F7784BD089584B5C9
:1001B0008F7DFBCF8091B0008F778093B000089542
:1001C0008091B0008F7DF9CF1F93CF93DF93282FBD
:1001D00030E0F901EA57FF4F8491F901E255FF4FF2
:1001E000D491F901E656FF4FC491CC23A9F0162F04
:1001F00081110E94BB00EC2FF0E0EE0FFF1FEE58C4
:10020000FF4FA591B4918FB7F894EC91111108C0EC
:10021000D095DE23DC938FBFDF91CF911F9108959E
:10022000DE2BF8CF1092A4021092A3021092A20229
:100230001092A1021092A00281E080939F0210927E
:100240009E0261E082E10E94E40061E083E10E949D
:10025000E400E9EBF0E080818E7F808380818D7FF8
:10026000808388E48093B80085E48093BC008CE8A8
:1002700090E090939D0280939C028DE890E0909393
:100280009B0280939A020895CF93DF9390E0FC0144
:10029000E255FF4F249186569F4FFC01849188239D
:1002A000C9F090E0880F991FFC01E859FF4FA59114
:1002B000B491FC01EE58FF4FC591D49161110DC06E
:1002C0009FB7F8948C91209582238C938881282362
:1002D00028839FBFDF91CF910895623051F49FB77B
:1002E000F8943C91822F809583238C93E8812E2B68
:1002F000EFCF8FB7F894EC912E2B2C938FBFEACFD2
:100300003FB7F8948091660290916702A0916802CD
:10031000B091690226B5A89B05C02F3F19F0019640
:10032000A11DB11D3FBFBA2FA92F982F8827BC014F
:10033000CD01620F711D811D911D42E0660F771F77
:10034000881F991F4A95D1F708958F929F92AF9277
:10035000BF92CF92DF92EF92FF924B015C010E941D
:1003600080016B017C010E9480016C197D098E095E
:100370009F09683E734081059105A8F321E0821A28
:100380009108A108B10888EEC80E83E0D81EE11CD0
:10039000F11C81149104A104B10429F7FF90EF909E
:1003A000DF90CF90BF90AF909F908F9008952FB720
:1003B000F89460916202709163028091640290915E
:1003C00065022FBF0895089585ED8093BC0080914C
:1003D000BC0084FDFCCF1092A00208952091F8018A
:1003E000260F3327331F21323105ECF42091A00270
:1003F000FC0190E080E0243069F082E00895A09153
:10040000F8012191AC0148525E4FA40FB52FB11DE8
:100410002C930196861798F38091F801680F6093EA
:10042000F80180E0089581E008950895E091A40224
:100430008091A302E81730F4F0E0E854FE4F808189
:1004400090E008958FEF9FEF08959091A40280911E
:10045000A3022FEF3FEF981748F4E92FF0E0E8549C
:10046000FE4F208130E09F5F9093A402C901089560
:100470008091A3029091A402891B990B0895CF92B9
:10048000DF92EF92FF920F931F93CF93DF937C0144
:10049000CB018A0120913F02222389F0EB016B01FD
:1004A000C40ED51ECC15DD0569F06991D701ED911B
:1004B000FC910190F081E02DC7010995F3CF642FE5
:1004C0000E94EE01C801DF91CF911F910F91FF9023
:1004D000EF90DF90CF900895CF93DF931F92CDB729
:1004E000DEB7698320913F022223F9F02091A10217
:1004F000203258F021E030E0FC013383228390E089
:1005000080E00F90DF91CF9108958091A202E82FB3
:10051000F0E0E05CFD4F998190838F5F8093A202B1
:100520008093A10281E090E0ECCF61E0CE010196E2
:100530000E94EE01F7CFCF93FC01C48121E020930C
:100540003F02C09360021092A2021092A102838522
:10055000682B85EA92E00E946C029091A102913290
:1005600008F03FC08091A0028111FCCF82E080930F
:10057000A00281E080939F028FEF80933E02109251
:100580003D0290933C02A0E4B2E0ECE1F2E080E0B6
:1005900098132FC010921B0280911B02CC0FC82B06
:1005A000C0931B0280919E02813039F510929E0209
:1005B00080911B028093BB008091BC0083FDF8CF2B
:1005C00085EC8093BC008091A0028230E1F38091A1
:1005D0003E028F3F31F080913E02803211F08091D7
:1005E0003E021092A2021092A10210923F02CF91FD
:1005F00008952D9121938F5FCBCF85EEE2CF90E0D0
:1006000080E00895FC0183898B3051F480E492E40A
:10061000AFE0B0E0FB0184A395A3A6A3B7A3089520
:1006200080E894E8AEE1B0E0F5CFCF92DF92EF92B0
:10063000FF92CF93DF93DC011796CC911797D0E010
:100640006111DC2F18962C91189730E0220F331F80
:1006500024583F4F50E040E0F90185919491FC010E
:10066000F080BA0190E080E0EF2DEC23ED1310C094
:100670004F5F5F4F1D96CD90DD90ED90FC905097B1
:100680006C157D058E059F0538F36FEF7FEFCB016D
:10069000DF91CF91FF90EF90DF90CF9008958F92F0
:1006A0009F92AF92BF92CF92DF92EF92FF920F9301
:1006B0001F93CF93DF93CDB7DEB7C054D1400FB6B1
:1006C000F894DEBF0FBECDBF8C010E94D701F801A8
:1006D000C184D284E384F4849B01AC012C193D09CC
:1006E0004E095F0969017A0130EDC31637E0D30680
:1006F000E104F104A8F48189C05CDE4F0FB6F894E0
:10070000DEBF0FBECDBFDF91CF911F910F91FF9044
:10071000EF90DF90CF90BF90AF909F908F90089513
:100720006187728783879487148213821282118271
:10073000108262E085810E94440161E070E080E007
:1007400090E00E94A50161E0F80185810E944401CA
:1007500060E0F80185810E94E400F80186818551FE
:10076000823028F58BE291E10197F1F762E0F80120
:1007700085810E944401F801828990E082309105D0
:1007800038F0880F991F880F991F05970197F1F787
:10079000F89460E0C8010E9415036F3F7F4F8F4FB0
:1007A0009F4F61F4F801118A789480E0A5CF64E14D
:1007B00070E080E090E00E94A501D8CF61E0C80120
:1007C0000E9415036F3F7F4F8F4F9F4F59F39E013C
:1007D0002F5F3F4F79015E013FEBA31A3EEFB30A53
:1007E000670160E0C8010E941503F6016083718310
:1007F0008283938361E0C8010E941503F60164833C
:10080000758386839783F8E0CF0ED11CCA14DB046E
:1008100041F7789430E020E0F70180809180A28059
:10082000B3804481558166817781FFEF8F169F06E3
:10083000AF06BF0631F04F3F8FEF580768077807C4
:1008400019F4F801118AB1CFF90183E0F595E79524
:100850008A95E1F7E00FF11F8081880F84169506D5
:10086000A606B706F0F080832F5F3F4FF8E0EF0E4B
:10087000F11C2832310581F6F80144812081818103
:10088000280F3327331F8281280F311D8381820F68
:10089000932F911D99274817190699F681E0818BAE
:1008A0002BCF8160E0CF089508958F929F92AF92F1
:1008B000BF920F931F93CF93DF93CDB7DEB7A1976E
:1008C0000FB6F894DEBF0FBECDBF19A2423008F4B8
:1008D0004AE08E010F5D1F4F842E912CB12CA12C6C
:1008E000A50194010E94260FE62FB901CA01EA3042
:1008F00044F5E05DD801EE938D01232B242B252BAD
:1009000079F790E080E0109769F0FD0101900020F8
:10091000E9F73197AF014A1B5B0BBD018AED92E00D
:100920000E948E00A1960FB6F894DEBF0FBECDBF19
:10093000DF91CF911F910F91BF90AF909F908F90BB
:100940000895E95CD7CFFC0101900020E9F73197C9
:10095000AF01481B590BBC018AED92E00C948E004C
:10096000DF92EF92FF920F931F93CF93DF93E12CCF
:10097000C7E0D0E001E010E060E08091B1020E94A9
:10098000E4008FE99FE00197F1F700C0000020919B
:10099000B20230E0F901EA57FF4F8491F901E255C4
:1009A000FF4FF490F901E656FF4FD490DD20A9F0F7
:1009B00081110E94BB00ED2DF0E0EE0FFF1FE45807
:1009C000FF4FA591B491EC91FE2239F0C8010C2E95
:1009D00001C0880F0A94EAF7E82A61E08091B10229
:1009E0000E94E4008FE99FE00197F1F700C000004A
:1009F000219708F0C1CF8E2DDF91CF911F910F91DC
:100A0000FF90EF90DF9008950F931F93CF938C0189
:100A1000C62F0E949B026C2F6460C8010E949B023B
:100A20006C2F6B7FC8010E949B0283EC90E00197C2
:100A3000F1F7CF911F910F9108950F931F93CF93CB
:100A4000DF938C01D62FC42F607F642B0E94040596
:100A500080E1D89FB00111246C2BC801DF91CF91A8
:100A60001F910F910C940405CF93DF93CDB7DEB7A0
:100A700028970FB6F894DEBF0FBECDBF98E0E0E137
:100A8000F1E0DE01119601900D929A95E1F79091B7
:100A9000E202961708F46FEF262F30E0220F331F83
:100AA00041E050E04C0F5D1F240F351FF9016081BC
:100AB000680F606840E08AED92E028960FB6F894DF
:100AC000DEBF0FBECDBFDF91CF910C941D0541E07D
:100AD0000E941D0581E090E00895CF92DF92EF9291
:100AE000FF920F931F93CF93DF938C01EB01FB01D8
:100AF000349680E2DF011D928A95E9F784E290E066
:100B0000A0E0B0E088839983AA83BB83F801858144
:100B10009681A781B0858C839D83AE83BF838CE053
:100B200090E0A0E0B0E088879987AA87BB870E9401
:100B3000D701688B798B8A8B9B8BD80113960D918B
:100B40001C91C8010E944F03882349F0F801868157
:100B50008B3028F08D3040F08551823070F160E0AC
:100B600070E080EC9FE71BC0618170E090E080E066
:100B70000E94FF0D2DEC3CEC4CEC5DE30E94900ECE
:100B80006B017C01F801608170E090E080E00E94E0
:100B9000FF0D9B01AC01C701B6010E945B0D6C8B80
:100BA0007D8B8E8B9F8B81E0DF91CF911F910F9179
:100BB000FF90EF90DF90CF9008956081718176274C
:100BC0006727762790E080E00E94FD0D2DEC3CEC3D
:100BD0004CEC5DE30E94900EE2CF8F929F92AF9219
:100BE000BF92EF92FF921F93CF93DF937C01EB01B3
:100BF000FB01349680E2DF011D928A95E9F784E2D9
:100C000090E0A0E0B0E088839983AA83BB83F701DA
:100C100085819681A781B0858C839D83AE83BF83B8
:100C20008DE090E0A0E0B0E088879987AA87BB8735
:100C30000E94D701688B798B8A8B9B8BD701139687
:100C4000ED90FC90C7010E944F03882341F0F7010B
:100C500086818C3009F455C038F48B30E1F060E0C7
:100C600070E080EC9FE73EC085518230C0F7128172
:100C7000612F70E0762F662766277F778381682B48
:100C800090E080E00E94FD0D2DEC3CEC4CEC5DE32F
:100C90000E94900E51C0628170E090E080E00E945E
:100CA000FD0D4B015C01F701138117FF0AC0AC0178
:100CB0009B0160E070E080E89FEB0E945A0D4B01C1
:100CC0005C011F70612F70E090E080E00E94FF0DDA
:100CD0002DEC3CEC4CEC5DE30E94900EA5019401E0
:100CE0000E945B0D6C8B7D8B8E8B9F8B81E0DF91E7
:100CF000CF911F91FF90EF90BF90AF909F908F90FA
:100D000008951281612F70E090E080E00E94FD0D57
:100D10004B015C01F70163816F7070E090E080E04F
:100D20000E94FF0D2DEC3CEC4CEC5DE30E94900E1C
:100D3000A50194010E945B0D17FFD4CF9058D2CF2C
:100D4000CF93DF93EB01FC0183894BE050E068E532
:100D500071E08C30C1F058F44BE050E062E571E096
:100D60008B3089F04BE050E06AE671E00CC04BE05C
:100D700050E06EE571E0853131F04BE050E064E623
:100D800071E0863179F7CE010E9473101B86DF91E6
:100D9000CF9108950F931F93CF93DF938C01EB01B5
:100DA00088E2DB011D928A95E9F7F801838194813D
:100DB0000E94A00681E090E0A0E0B0E08C879D87D3
:100DC000AE87BF87F80185819681A781B085888B22
:100DD000998BAA8BBB8B8CE090E0A0E0B0E08C8B71
:100DE0009D8BAE8BBF8BBE01838194810E940203D9
:100DF000D8011396ED91FC9183898C3009F441C0A0
:100E000078F48B3009F1188E198E1A8E1B8E1C8E79
:100E10001D8E1E8E1F8E18A219A21AA21BA22CC0F4
:100E20008551823080F780E090E0A8ECB2E4888FB2
:100E3000998FAA8FBB8F1C8E1D8E1E8E1F8E8DECE0
:100E40009CECACECBDE314C080E090E0A0EAB2E41E
:100E5000888F998FAA8FBB8F80E090E0A0EAB1E4E1
:100E60008C8F9D8FAE8FBF8F80E090E0A0EAB0E4C2
:100E700088A399A3AAA3BBA3DF91CF911F910F9140
:100E8000089580E090E0AEEBB2E4E2CF0F931F93C1
:100E9000CF93DF938C01EB0188E2DB011D928A95F1
:100EA000E9F7F801838194810E94A00681E090E037
:100EB000A0E0B0E08C879D87AE87BF87F801858171
:100EC0009681A781B085888B998BAA8BBB8B8DE08F
:100ED00090E0A0E0B0E08C8B9D8BAE8BBF8BBE0111
:100EE000838194810E940203D8011396ED91FC91B5
:100EF00083898C3091F178F48B30B1F0188E198E93
:100F00001A8E1B8E1C8E1D8E1E8E1F8E18A219A26D
:100F10001AA21BA21DC08531A9F1863179F780E0A4
:100F200090E0AAEFB2E432C080E090E0A8E4B2E43E
:100F3000888F998FAA8FBB8F1C8E1D8E1E8E1F8E41
:100F400080E090E0A0E0B0E488A399A3AAA3BBA3AB
:100F5000DF91CF911F910F91089580E090E0A0E77D
:100F6000B2E4888F998FAA8FBB8F80E090E0A0EACF
:100F7000B1EC8C8F9D8FAE8FBF8F80E090E0A0E0B2
:100F8000BFE3E2CF80E090E0A0EAB2E4888F998FDF
:100F9000AA8FBB8F80E090E0A0E2B2EC8C8F9D8F97
:100FA000AE8FBF8F8DEC9CECACECBDE3CDCF0C9441
:100FB000EA0F0C94EA0F1F920F920FB60F921124B2
:100FC0002F933F938F939F93AF93BF938091620230
:100FD00090916302A0916402B09165023091610228
:100FE00023E0230F2D3758F50196A11DB11D209345
:100FF00061028093620290936302A0936402B093B3
:1010000065028091660290916702A0916802B0919A
:1010100069020196A11DB11D80936602909367023B
:10102000A0936802B0936902BF91AF919F918F9195
:101030003F912F910F900FBE0F901F90189526E8AB
:10104000230F0296A11DB11DD2CF1F920F920FB692
:101050000F9211242F933F934F935F936F937F933E
:101060008F939F93AF93BF93EF93FF938091B900BA
:10107000887F803609F44AC0F0F5883209F4A7C0A9
:1010800018F5803109F49BC0B8F4882309F4F9C03D
:10109000883009F494C0FF91EF91BF91AF919F9177
:1010A0008F917F916F915F914F913F912F910F9011
:1010B0000FBE0F901F901895883109F488C08032B8
:1010C00051F780933E0214C0803409F49DC040F46F
:1010D0008033B9F38833F9F680933E0285ECB0C0D3
:1010E000803509F485C0883509F496C0883499F6AE
:1010F0000E94E401D0CF883909F48CC038F58837D4
:1011000029F050F4883611F0803729F683E0809377
:10111000A00210921A0257C0883809F47BC08039A7
:1011200019F0803809F0B7CF80911A02803208F0A8
:1011300071C0E0911A0281E08E0F80931A028091B3
:10114000BB00F0E0E650FE4F80833DC0803B39F0AD
:10115000E0F4803A09F479C0883A09F09CCF84E041
:101160008093A0021092F9011092F801E0919C0284
:10117000F0919D0209958091F80181110FC081E0E5
:101180008093F8011092D80109C0803C09F4A6CFE1
:10119000883C09F4A3CF883B09F07DCFE091F901A9
:1011A00081E08E0F8093F901F0E0E852FE4F8081DC
:1011B0008093BB009091F9018091F80129C0809142
:1011C0001B028093BB0085EC8093BC0064CF9091A0
:1011D0003D0280913C02981758F5E0913D0281E074
:1011E0008E0F80933D02F0E0E45EFD4F8081E9CFF9
:1011F000E0913D0281E08E0F80933D028091BB0023
:10120000F0E0E45EFD4F808390913D0280913C02CE
:101210009817C8F285E8D8CFE0913D0281E08E0FA3
:1012200080933D028091BB00F0E0E45EFD4F80833F
:1012300080919F0281115CCF81E080939E0284EABD
:101240008093BC001092A00226CF85EC8093BC0056
:101250001092A00280911A02803230F4E0911A02BA
:10126000F0E0E650FE4F108260911A0270E0E091CB
:101270009A02F0919B028AEF91E0099510921A026E
:101280000ACF10923E0234CFCF93DF93E5EAF2E02B
:101290001382128288EE93E0A0E0B0E0848395830D
:1012A000A683B7838CE191E091838083EAEDF2E03D
:1012B000138212828AE491E09183808387E284839F
:1012C00080E1818782E082871386A4EBB2E01596E5
:1012D0008C9315978BE016968C931697E0EBF0E0C5
:1012E000E4911796EC931797ECE9F0E0E4911896E7
:1012F000EC93189740E85EE360E070E01D964D9334
:101300005D936D937C93509753968C9353978CE396
:1013100091E055969C938E9354970A2E1B2E5896C7
:101320001C920E92112457974FEF5FEFBA01599616
:101330004D935D936D937C935C978EE291E05E9606
:101340009C938E935D970A2E1B2E91961C920E9263
:101350001124909792964D935D936D937C939597FE
:10136000C1EBD2E086E0888385E08A8384E08983CC
:1013700061E085E00E94440161E088810E944401AF
:1013800060E089810E94440161E08A81DF91CF9110
:101390000C94E400CF93DF93CDB7DEB729970FB657
:1013A000F894DEBF0FBECDBF789484B5826084BD53
:1013B00084B5816084BD85B5826085BD85B5816059
:1013C00085BD80916E00816080936E0010928100D7
:1013D0008091810082608093810080918100816092
:1013E0008093810080918000816080938000809153
:1013F000B10084608093B1008091B00081608093DF
:10140000B00080917A00846080937A0080917A00A5
:10141000826080937A0080917A00816080937A0064
:1014200080917A00806880937A001092C10061E018
:101430008DE00E9444010E9412016AE070E080E0A9
:1014400090E00E94A5010E9412011092DF0280919B
:10145000E402823018F098E09093DF028093E20279
:1014600062E370E080E090E00E94A5016091E502F7
:101470008AED92E00E949B0268EE73E080E090E0CB
:101480000E94A50160E38AED92E00E9404050BE44E
:1014900016E4C8010197F1F760E38AED92E00E943B
:1014A0000405C8010197F1F760E38AED92E00E941C
:1014B000040583E592E00197F1F760E28AED92E09E
:1014C0000E9404056091DF02606240E08AED92E0D4
:1014D0000E941D0584E08093E00240E06CE08AED0C
:1014E00092E00E941D0540E061E08AED92E00E94DA
:1014F0001D050BE31FE1C8010197F1F782E080931E
:10150000E10240E066E08AED92E00E941D0540E0C5
:1015100062E08AED92E00E941D05C8010197F1F793
:1015200088E08093E50260E08AED92E00E949B02F1
:1015300061E089E00E9434058FE691E00E94A304F7
:1015400062E08091B9020E9444010E94D701605D6F
:101550007740810991096093BD027093BE02809328
:10156000BF029093C00287E38093C60261E089E0E6
:101570000E94E40061E089E00E94440161E089E0AA
:101580000E94E40061E088E00E94E40061E088E0FD
:101590000E94440161E088E00E94E4004CE3442E94
:1015A00041E0542E54EF252E3324339468EE662EFA
:1015B00063E0762E20EDE22E27E0F22E30E0C32EFF
:1015C00030E0D32E0E94D7010E94FD0D20918E02A3
:1015D00030918F0240919002509191020E948B0EA7
:1015E00018160CF0DCC08091CA028B835A824982A3
:1015F0008091CB029091CC029D838C838091CD020F
:101600009091CE02A091CF02B091D0028E839F83A1
:10161000A887B9876AE672E0CE0101960E94ED05BF
:1016200080907E0290907F02A0908002B090810214
:10163000A5019401C501B4010E94FD0E882309F49F
:1016400044C08FEF809395028091D3028B838EE20A
:1016500091E09A8389838091D4029091D5029D83F1
:101660008C838091D6029091D702A091D802B0913C
:10167000D9028E839F83A887B9876AE672E0CE017C
:1016800001960E946D0580907E0290907F02A0904E
:101690008002B0908102A5019401C501B4010E94AD
:1016A000FD0E81112DC020E030E0A901C501B4017B
:1016B0000E948B0E87FF58C120E030E040E05FE3DE
:1016C000C501B4010E945A0D57C120E030E0A901C4
:1016D000C501B4010E948B0E20E030E040E05FE3E2
:1016E00087FD09C0C501B4010E945B0D0E94C70DB2
:1016F00060939502A9CFC501B4010E945A0DF6CF9F
:101700009FEF9093920260E08091B3020E94E40008
:101710008FE99FE00197F1F700C000000E94B0043C
:10172000082F10E0102F00270E94B004082B61E062
:101730008091B3020E94E40060E070E080EC9FE7DB
:1017400002FD10C083E0169507958A95E1F7B80170
:1017500090E080E00E94FD0D20E030E040E85EE394
:101760000E94900E0E94CE0D6093930220E030E024
:101770004AE754E460918E0270918F02809190024A
:10178000909191020E945B0D60938E0270938F0284
:10179000809390029093910281E0809399028091CE
:1017A0009902882309F452C060E080E00E94340569
:1017B00087E791E00E94A304609195028AE791E097
:1017C0006F3F71F070E090E080E04AE00E945504C5
:1017D00041E06FED8AED92E00E941D058FE791E0F8
:1017E0000E94A30460E08BE00E94340582E891E04F
:1017F0000E94A3046091920285E891E06F3F41F05E
:1018000070E090E080E04AE00E94550489E891E0B1
:101810000E94A30461E080E00E9434058BE891E01F
:101820000E94A3046091930270E090E080E04AE09F
:101830000E94550441E06FED8AED92E00E941D0583
:101840008FE791E00E94A304109299020E94D701B1
:101850000E94FD0D20910001309101014091020193
:10186000509103010E948B0E18160CF044C061E0E9
:1018700089E00E94340580919602909197028A3007
:10188000910509F4B8C08431910509F4D7C0892BBA
:1018900009F005C180919502853108F072C08091F0
:1018A0009402811197C060E089E00E94E40060E04A
:1018B00088E00E94E4000E94D7016854744F8F4F63
:1018C0009F4F0E94FD0D6093000170930101809372
:1018D0000201909303018FE891E00E94A3048AEF34
:1018E00090E090930501809304018AE090E090934A
:1018F0009702809396020E94D701809006019090F3
:101900000701A0900801B09009010E94FD0DA501FA
:1019100094010E948B0E181604F510919802612F05
:101920008DE00E94E40081E01827109398026091F6
:10193000040170910501072E000C880B990B0E9481
:10194000FF0DA50194010E945B0D60930601709349
:1019500007018093080190930901C114D10409F48F
:1019600031CE0E94000026CE20E030E040E05FE370
:10197000C501B4010E945B0D0E94C70D60939202E5
:10198000C2CE883138F180919402882319F161E048
:1019900089E00E94E40061E088E00E94E4000E9487
:1019A000D701605A75418F4F9F4F0E94FD0D609384
:1019B0000001709301018093020190930301109242
:1019C000940287E991E00E94A304F0920501E0925D
:1019D000040191CF0E94D70168517C4F8F4F9F4FD8
:1019E0000E94FD0D6093000170930101809302013C
:1019F0009093030180CF61E088E00E94E4000E94A0
:101A0000D701605C704E8F4F9F4F0E94FD0D609319
:101A1000000170930101809302019093030184E11E
:101A200090E090939702809396028FE991E00E9454
:101A3000A30430920501209204015DCF80919302AE
:101A4000823308F561E089E00E94E4000E94D7013A
:101A5000605E70448D4F9F4F0E94FD0D60930001AA
:101A600070930101809302019093030187EA91E052
:101A70000E94A304F0920501E092040110929702E3
:101A80001092960238CF81E0809394028FEA91E021
:101A90000E94A3047092050160920401EFCF10929E
:101AA0009702109296020E94D7016C507E4F8F4F82
:101AB0009F4F96CF5058BB27AA270E94720D0C94B7
:101AC000510E0E94430E38F00E944A0E20F039F465
:101AD0009F3F19F426F40C94400E0EF4E095E7FBBA
:101AE0000C943A0EE92F0E94620E58F3BA1762075F
:101AF00073078407950720F079F4A6F50C94840EFB
:101B00000EF4E0950B2EBA2FA02D0B01B901900118
:101B10000C01CA01A0011124FF27591B99F0593F5C
:101B200050F4503E68F11A16F040A22F232F342FA4
:101B30004427585FF3CF469537952795A795F040F2
:101B40005395C9F77EF41F16BA0B620B730B840B07
:101B5000BAF09150A1F0FF0FBB1F661F771F881FBF
:101B6000C2F70EC0BA0F621F731F841F48F4879517
:101B700077956795B795F7959E3F08F0B0CF939509
:101B8000880F08F09927EE0F9795879508950E9482
:101B9000CE0D6894B1110C94850E08950E946A0EC2
:101BA00088F09F5798F0B92F9927B751B0F0E1F01E
:101BB000660F771F881F991F1AF0BA95C9F714C0CE
:101BC000B13091F00E94840EB1E008950C94840E1F
:101BD000672F782F8827B85F39F0B93FCCF3869507
:101BE00077956795B395D9F73EF490958095709564
:101BF00061957F4F8F4F9F4F0895E89409C097FBE1
:101C00003EF490958095709561957F4F8F4F9F4FD3
:101C10009923A9F0F92F96E9BB279395F695879517
:101C200077956795B795F111F8CFFAF4BB0F11F4DA
:101C300060FF1BC06F5F7F4F8F4F9F4F16C0882381
:101C400011F096E911C0772321F09EE8872F762FB7
:101C500005C0662371F096E8862F70E060E02AF0F8
:101C60009A95660F771F881FDAF7880F96958795E4
:101C700097F9089597F99F6780E870E060E008950C
:101C80009FEF80EC089500240A9416161706180694
:101C90000906089500240A94121613061406050670
:101CA0000895092E0394000C11F4882352F0BB0F01
:101CB00040F4BF2B11F460FF04C06F5F7F4F8F4F64
:101CC0009F4F089557FD9058440F551F59F05F3F9F
:101CD00071F04795880F97FB991F61F09F3F79F04E
:101CE00087950895121613061406551FF2CF4695D0
:101CF000F1DF08C0161617061806991FF1CF869552
:101D00007105610508940895E894BB276627772735
:101D1000CB0197F908950E94020F08F48FEF089500
:101D20000E94A30E0C94510E0E94430E38F00E94A4
:101D30004A0E20F0952311F00C943A0E0C94400EAC
:101D400011240C94850E0E94620E70F3959FC1F3CE
:101D5000950F50E0551F629FF001729FBB27F00D59
:101D6000B11D639FAA27F00DB11DAA1F649F6627AE
:101D7000B00DA11D661F829F2227B00DA11D621FFD
:101D8000739FB00DA11D621F839FA00D611D221FB7
:101D9000749F3327A00D611D231F849F600D211D9B
:101DA000822F762F6A2F11249F5750409AF0F1F01E
:101DB00088234AF0EE0FFF1FBB1F661F771F881F87
:101DC00091505040A9F79E3F510580F00C943A0E77
:101DD0000C94850E5F3FE4F3983ED4F38695779597
:101DE0006795B795F795E7959F5FC1F7FE2B880F2D
:101DF000911D9695879597F908950E94020F880B7B
:101E0000990B0895990F0008550FAA0BE0E8FEEF13
:101E100016161706E807F907C0F012161306E407AE
:101E2000F50798F0621B730B840B950B39F40A26A7
:101E300061F0232B242B252B21F408950A2609F485
:101E4000A140A6958FEF811D811D0895A1E21A2E54
:101E5000AA1BBB1BFD010DC0AA1FBB1FEE1FFF1F4E
:101E6000A217B307E407F50720F0A21BB30BE40B9E
:101E7000F50B661F771F881F991F1A9469F76095E5
:101E80007095809590959B01AC01BD01CF0108959F
:101E9000EE0FFF1F0590F491E02D09940F931F930F
:101EA000CF93DF938230910510F482E090E0E091CF
:101EB000E802F091E90230E020E0B0E0A0E03097E5
:101EC00099F42115310509F44AC0281B390B243037
:101ED0003105D8F58A819B816115710589F1FB0176
:101EE00093838283FE0111C040815181028113815D
:101EF00048175907E0F04817590799F4109761F00F
:101F000012960C93129713961C933296CF01DF9181
:101F1000CF911F910F9108950093E8021093E90269
:101F2000F4CF2115310551F04217530738F0A901BC
:101F3000DB019A01BD01DF01F801C1CFEF01F9CF4B
:101F40009093E9028093E802CDCFFE01E20FF31FE8
:101F5000819391932250310939832883D7CF2091DF
:101F6000E6023091E702232B41F420910C013091DD
:101F70000D013093E7022093E60220910A0130918F
:101F80000B012115310541F42DB73EB740910E01EB
:101F900050910F01241B350BE091E602F091E7020E
:101FA000E217F307A0F42E1B3F0B2817390778F030
:101FB000AC014E5F5F4F2417350748F04E0F5F1F8F
:101FC0005093E7024093E602819391939FCFF0E014
:101FD000E0E09CCFCF93DF930097E9F0FC013297CC
:101FE00013821282A091E802B091E902ED0130E083
:101FF00020E01097A1F420813181820F931F20915E
:10200000E6023091E7022817390709F061C0F09322
:10201000E702E093E602DF91CF910895EA01CE173F
:10202000DF07E8F54A815B819E0141155105B1F753
:10203000E901FB83EA8349915991C40FD51FEC173D
:10204000FD0761F4808191810296840F951FE9015B
:1020500099838883828193819B838A83F0E0E0E087
:1020600012968D919C9113970097B9F52D913C9103
:102070001197CD010296820F931F2091E6023091B5
:10208000E7022817390739F6309751F51092E9021F
:102090001092E802B093E702A093E602BCCFD3838C
:1020A000C28340815181840F951FC817D90761F4FD
:1020B0004E5F5F4F88819981480F591F518340833C
:1020C0008A819B81938382832115310509F0B0CFEA
:1020D000F093E902E093E8029ECFFD01DC01C0CF5E
:1020E00013821282D7CFFB01DC014150504048F0EF
:1020F00001900D920020C9F701C01D92415050403F
:08210000E0F70895F894FFCF09
:1021080000409C45D0070000FA440000EA02800025
:102118000000400014005400000000006C023F0260
:10212800FF021502380225021602000000005304BF
:10213800D70754046D05CA06000000005304D907E8
:102148005404ED0546070000000067058E00FF02F5
:10215800E301444854313100444854313200444882
:10216800543231004448543232004448543F004805
:10217800656C6C6F202100543D006572722000432D
:102188002000483D00657272002500546B3D0053E5
:1021980074617274207E0047617A206F666600530E
:1021A8007461727420200052657374617274004700
:0821B800617A206F6E20000027
:00000001FF
